{
  "_format": "hh-sol-artifact-1",
  "contractName": "BasicDutchAuction",
  "sourceName": "contracts/BasicDutchAuction.sol",
  "abi": [
    {
      "inputs": [
        {
          "internalType": "uint256",
          "name": "_reservePrice",
          "type": "uint256"
        },
        {
          "internalType": "uint256",
          "name": "_numBlocksAuctionOpen",
          "type": "uint256"
        },
        {
          "internalType": "uint256",
          "name": "_offerPriceDecrement",
          "type": "uint256"
        }
      ],
      "stateMutability": "nonpayable",
      "type": "constructor"
    },
    {
      "inputs": [],
      "name": "auctionCloseBlock",
      "outputs": [
        {
          "internalType": "uint256",
          "name": "",
          "type": "uint256"
        }
      ],
      "stateMutability": "view",
      "type": "function"
    },
    {
      "inputs": [],
      "name": "auctionEnd",
      "outputs": [
        {
          "internalType": "bool",
          "name": "",
          "type": "bool"
        }
      ],
      "stateMutability": "view",
      "type": "function"
    },
    {
      "inputs": [],
      "name": "bid",
      "outputs": [
        {
          "internalType": "bool",
          "name": "",
          "type": "bool"
        }
      ],
      "stateMutability": "payable",
      "type": "function"
    },
    {
      "inputs": [],
      "name": "buyer",
      "outputs": [
        {
          "internalType": "address",
          "name": "",
          "type": "address"
        }
      ],
      "stateMutability": "view",
      "type": "function"
    },
    {
      "inputs": [],
      "name": "getCurrentBidPrice",
      "outputs": [
        {
          "internalType": "uint256",
          "name": "",
          "type": "uint256"
        }
      ],
      "stateMutability": "view",
      "type": "function"
    },
    {
      "inputs": [],
      "name": "numBlocksAuctionOpen",
      "outputs": [
        {
          "internalType": "uint256",
          "name": "",
          "type": "uint256"
        }
      ],
      "stateMutability": "view",
      "type": "function"
    },
    {
      "inputs": [],
      "name": "offerPriceDecrement",
      "outputs": [
        {
          "internalType": "uint256",
          "name": "",
          "type": "uint256"
        }
      ],
      "stateMutability": "view",
      "type": "function"
    },
    {
      "inputs": [],
      "name": "reservePrice",
      "outputs": [
        {
          "internalType": "uint256",
          "name": "",
          "type": "uint256"
        }
      ],
      "stateMutability": "view",
      "type": "function"
    },
    {
      "inputs": [],
      "name": "sellerAccountAddr",
      "outputs": [
        {
          "internalType": "address",
          "name": "",
          "type": "address"
        }
      ],
      "stateMutability": "view",
      "type": "function"
    }
  ],
  "bytecode": "0x60806040526000600660146101000a81548160ff0219169083151502179055503480156200002c57600080fd5b5060405162000ecb38038062000ecb833981810160405281019062000052919062000235565b82600081905550816001819055508060028190555043600381905550600154600354620000809190620002c0565b6004819055506200009e6004546200012960201b620005481760201c565b33600560006101000a81548173ffffffffffffffffffffffffffffffffffffffff021916908373ffffffffffffffffffffffffffffffffffffffff16021790555033600660006101000a81548173ffffffffffffffffffffffffffffffffffffffff021916908373ffffffffffffffffffffffffffffffffffffffff16021790555050505062000329565b620001c9816040516024016200014091906200030c565b6040516020818303038152906040527ff82c50f1000000000000000000000000000000000000000000000000000000007bffffffffffffffffffffffffffffffffffffffffffffffffffffffff19166020820180517bffffffffffffffffffffffffffffffffffffffffffffffffffffffff8381831617835250505050620001cc60201b60201c565b50565b60008151905060006a636f6e736f6c652e6c6f679050602083016000808483855afa5050505050565b600080fd5b6000819050919050565b6200020f81620001fa565b81146200021b57600080fd5b50565b6000815190506200022f8162000204565b92915050565b600080600060608486031215620002515762000250620001f5565b5b600062000261868287016200021e565b935050602062000274868287016200021e565b925050604062000287868287016200021e565b9150509250925092565b7f4e487b7100000000000000000000000000000000000000000000000000000000600052601160045260246000fd5b6000620002cd82620001fa565b9150620002da83620001fa565b9250828201905080821115620002f557620002f462000291565b5b92915050565b6200030681620001fa565b82525050565b6000602082019050620003236000830184620002fb565b92915050565b610b9280620003396000396000f3fe6080604052600436106100865760003560e01c80637150d8ae116100595780637150d8ae1461012a578063962ad07014610155578063b0a23ce414610180578063d3642a88146101ab578063db2e1eed146101d657610086565b80630cb283961461008b5780631998aeef146100b65780632a24f46c146100d45780633103ea62146100ff575b600080fd5b34801561009757600080fd5b506100a0610201565b6040516100ad91906107ae565b60405180910390f35b6100be610227565b6040516100cb91906107e4565b60405180910390f35b3480156100e057600080fd5b506100e96102e4565b6040516100f691906107e4565b60405180910390f35b34801561010b57600080fd5b506101146102f7565b6040516101219190610818565b60405180910390f35b34801561013657600080fd5b5061013f6102fd565b60405161014c91906107ae565b60405180910390f35b34801561016157600080fd5b5061016a610323565b6040516101779190610818565b60405180910390f35b34801561018c57600080fd5b50610195610536565b6040516101a29190610818565b60405180910390f35b3480156101b757600080fd5b506101c061053c565b6040516101cd9190610818565b60405180910390f35b3480156101e257600080fd5b506101eb610542565b6040516101f89190610818565b60405180910390f35b600560009054906101000a900473ffffffffffffffffffffffffffffffffffffffff1681565b6000801515600660149054906101000a900460ff16151514801561024c575060045443105b61028b576040517f08c379a0000000000000000000000000000000000000000000000000000000008152600401610282906108b6565b60405180910390fd5b610293610323565b3410156102d5576040517f08c379a00000000000000000000000000000000000000000000000000000000081526004016102cc90610948565b60405180910390fd5b6102dd6105e1565b6001905090565b600660149054906101000a900460ff1681565b60015481565b600760009054906101000a900473ffffffffffffffffffffffffffffffffffffffff1681565b60006103646040518060400160405280601081526020017f43757272656e7420626c6f636b3a202000000000000000000000000000000000815250436106a8565b6103a56040518060400160405280601681526020017f7374617274696e67426c6f636b20626c6f636b3a2020000000000000000000008152506003546106a8565b6103e66040518060400160405280601a81526020017f61756374696f6e436c6f7365426c6f636b20626c6f636b3a20200000000000008152506004546106a8565b6104276040518060400160405280601781526020017f6e756d426c6f636b7341756374696f6e4f70656e3a20200000000000000000008152506001546106a8565b6104686040518060400160405280600f81526020017f7265736572766550726963653a202000000000000000000000000000000000008152506000546106a8565b6104a96040518060400160405280601681526020017f6f66666572507269636544656372656d656e743a2020000000000000000000008152506002546106a8565b60045443106104ed576040517f08c379a00000000000000000000000000000000000000000000000000000000081526004016104e4906109b4565b60405180910390fd5b6000600254600354436105009190610a03565b61050a9190610a37565b6001546105179190610a03565b6000546105249190610a79565b905061052f81610548565b8091505090565b60045481565b60025481565b60005481565b6105de8160405160240161055c9190610818565b6040516020818303038152906040527ff82c50f1000000000000000000000000000000000000000000000000000000007bffffffffffffffffffffffffffffffffffffffffffffffffffffffff19166020820180517bffffffffffffffffffffffffffffffffffffffffffffffffffffffff8381831617835250505050610744565b50565b600660009054906101000a900473ffffffffffffffffffffffffffffffffffffffff1673ffffffffffffffffffffffffffffffffffffffff166108fc349081150290604051600060405180830381858888f19350505050158015610649573d6000803e3d6000fd5b506001600660146101000a81548160ff02191690831515021790555033600760006101000a81548173ffffffffffffffffffffffffffffffffffffffff021916908373ffffffffffffffffffffffffffffffffffffffff160217905550565b61074082826040516024016106be929190610b2c565b6040516020818303038152906040527fb60e72cc000000000000000000000000000000000000000000000000000000007bffffffffffffffffffffffffffffffffffffffffffffffffffffffff19166020820180517bffffffffffffffffffffffffffffffffffffffffffffffffffffffff8381831617835250505050610744565b5050565b60008151905060006a636f6e736f6c652e6c6f679050602083016000808483855afa5050505050565b600073ffffffffffffffffffffffffffffffffffffffff82169050919050565b60006107988261076d565b9050919050565b6107a88161078d565b82525050565b60006020820190506107c3600083018461079f565b92915050565b60008115159050919050565b6107de816107c9565b82525050565b60006020820190506107f960008301846107d5565b92915050565b6000819050919050565b610812816107ff565b82525050565b600060208201905061082d6000830184610809565b92915050565b600082825260208201905092915050565b7f4269647320617265206e6f74206265696e672061636365707465642c2074686560008201527f2061756374696f6e2068617320656e6465642e00000000000000000000000000602082015250565b60006108a0603383610833565b91506108ab82610844565b604082019050919050565b600060208201905081810360008301526108cf81610893565b9050919050565b7f596f757220626964207072696365206973206c657373207468616e207468652060008201527f72657175697265642061756374696f6e2070726963652e000000000000000000602082015250565b6000610932603783610833565b915061093d826108d6565b604082019050919050565b6000602082019050818103600083015261096181610925565b9050919050565b7f41756374696f6e20697320636c6f736564000000000000000000000000000000600082015250565b600061099e601183610833565b91506109a982610968565b602082019050919050565b600060208201905081810360008301526109cd81610991565b9050919050565b7f4e487b7100000000000000000000000000000000000000000000000000000000600052601160045260246000fd5b6000610a0e826107ff565b9150610a19836107ff565b9250828203905081811115610a3157610a306109d4565b5b92915050565b6000610a42826107ff565b9150610a4d836107ff565b9250828202610a5b816107ff565b91508282048414831517610a7257610a716109d4565b5b5092915050565b6000610a84826107ff565b9150610a8f836107ff565b9250828201905080821115610aa757610aa66109d4565b5b92915050565b600081519050919050565b60005b83811015610ad6578082015181840152602081019050610abb565b60008484015250505050565b6000601f19601f8301169050919050565b6000610afe82610aad565b610b088185610833565b9350610b18818560208601610ab8565b610b2181610ae2565b840191505092915050565b60006040820190508181036000830152610b468185610af3565b9050610b556020830184610809565b939250505056fea2646970667358221220c53f7c3cd468a9a9b677414045f2713bcfd2ae3d20a0f569009d2acc6822944764736f6c63430008110033",
  "linkReferences": {},
  "deployedLinkReferences": {}
}